:020000040800F2
:100000002002002001010008250300082703000842
:100010002B0300082F030008330300080000000032
:10002000000000000000000000000000370300088E
:1000300039030008000000003B0300083D030008EE
:100040001701000817010008170100081701000830
:100050001701000817010008170100081701000820
:100060001701000817010008170100081701000810
:100070001701000817010008170100081701000800
:1000800017010008170100081701000817010008F0
:1000900017010008170100081701000817010008E0
:1000A00017010008170100081701000817010008D0
:1000B00017010008170100081701000817010008C0
:1000C00017010008170100081701000817010008B0
:1000D00017010008170100081701000817010008A0
:1000E000170100081701000817010008DFF80CD0FD
:1000F00002F0F6F800480047B50100082002002091
:1001000005480047FEE7FEE7FEE7FEE7FEE7FEE7FD
:10011000FEE7FEE7FEE7FEE7ED000008002107E04E
:10012000002200E0521C42F6E0639A42FAD3491CD6
:100130008142F5D37047002106E00A2100BF0A1E64
:10014000A1F1010399B2FAD1021EA0F1010398B204
:10015000F3D1704770B505460E46002404E0285DD3
:100160004E4903F017FB641CB442F8DB70BD2DE967
:10017000F04186B0044615461E46142248A101A847
:1001800001F0BAFD04F1D000C0B28DF807000022E2
:10019000484B2846314601F068FE074601F053FF00
:1001A00000B2ADF80C00142101A8FFF7D3FF06B090
:1001B000BDE8F08188B00021069107910491059176
:1001C000884689468A4600BF01F084F901F0ACF9FF
:1001D00001F086FA60E04FF4FA70FFF79FFF4FF0EE
:1001E0000009CA46C8460CE03348008881443248BA
:1001F000408882440A20FFF79EFF08F101001FFAA1
:1002000080F8B8F57A7FEFDB4FF47A70B9FBF0FB3A
:10021000584601F00BFF0022284BCDE9000101F008
:1002200024FE0022264BCDE9020101F090FE044697
:100230000D464FF47A70BAFBF0FB584601F0F6FE1B
:1002400000221E4BCDE9000101F00FFE00221C4BE5
:10025000CDE9020101F07BFE06460F4622462B4601
:1002600018A002F0A1F832463B461DA002F09CF80F
:1002700006AA2046294601F041FA04AA304639462A
:1002800001F03CFA1DA0DDE9062302F08DF820A064
:10029000DDE9042302F088F89DE700001800002043
:1002A000AA5500DD00080000000056789ABCDEF078
:1002B00000000D0A0000594014000020502D894014
:1002C00000408F400A50413020766F6C7461676542
:1002D000203D20252E326C66206D5620200D0A0010
:1002E00050413120766F6C74616765203D20252E6A
:1002F000326C66206D5620200D0A00000A54656D90
:1003000030203D20252E326C6620430D0A0000006F
:1003100054656D31203D20252E326C6620430D0A38
:1003200000000000704700BFFEE700BFFEE700BF0F
:10033000FEE700BFFEE77047704770477047000058
:1003400010B50446C649601A8C422FD009DCC54856
:10035000204480B1B0F5806F16D0B0F5006F4AD15F
:100360001BE0B0F5806F2AD0B0F5006F30D0B0F54B
:10037000406F40D135E00121042000F0FFFA002158
:10038000042000F0FBFA37E00121082000F0F6FA23
:100390000021082000F0F2FA2EE00121102000F0E8
:1003A000EDFA0021102000F0E9FA25E001212020DB
:1003B00000F0E4FA0021202000F0E0FA1CE0012126
:1003C000402000F0DBFA0021402000F0D7FA13E0D3
:1003D0000121802000F0D2FA0021802000F0CEFA26
:1003E0000AE00121080200F0C9FA00214FF48070F0
:1003F00000F0C4FA00E000BF00BF10BD10B501213D
:10040000084600F0BBFA0021012000F0B7FA10BD49
:100410002DE9F0410246002500260020002300249B
:10042000002791F803C00CF00F0591F803C00CF001
:10043000100CBCF1000F03D091F802C04CEA050586
:1004400091F800C0BCF1000F31D0146800202BE0FF
:100450004FF0010C0CFA00F3B1F800C00CEA0306EF
:100460009E4220D183004FF00F0C0CFA03F7BC43DF
:1004700005FA03FC4CEA040491F803C0BCF1280F10
:1004800006D14FF0010C0CFA00FCC2F814C00AE0CF
:1004900091F803C0BCF1480F05D14FF0010C0CFAE4
:1004A00000FCC2F810C0401C0828D1D31460B1F879
:1004B00000C0BCF1FF0F34DD546800202EE000F1D5
:1004C000080C4FF0010808FA0CF3B1F800C00CEA70
:1004D00003069E4221D183004FF00F0C0CFA03F764
:1004E000BC4305FA03FC4CEA040491F803C0BCF1D8
:1004F000280F05D100F1080C08FA0CF8C2F8148096
:1005000091F803C0BCF1480F07D100F1080C4FF07F
:10051000010808FA0CF8C2F81080401C0828CED355
:100520005460BDE8F0814FF6FF71018002218170B7
:100530000421C17070470246002093680B400BB144
:10054000012000E0002070470146886880B27047B3
:1005500002460020D3680B400BB1012000E00020D0
:1005600070470146C86880B27047016170474161B9
:1005700070470AB1016100E041617047C160704796
:100580004FF480320A4382618161826182698269AB
:10059000704702460020344B18684FF680731840AD
:1005A00040EA02100843304B186070472F49C86179
:1005B0007047F0B50A4600230024002100252A4E8A
:1005C0007168C0F3034583B200F44016B6F5401FCE
:1005D00008D121F07061244E766826F07066224FB3
:1005E0007E6012E000F48016B6F5801F06D1032667
:1005F00006FA05F4A14341F0706106E0460D3601AC
:1006000003FA06F6B14341F0706122B1460D36019E
:1006100003FA06F63143144E7160F0BD30B5002286
:100620008B071C0F0F2303FA04F20F4B08338C10B7
:1006300053F8243093430C4C08348D1044F8253083
:1006400023468C1053F824308C07240F00FA04F44E
:100650002343054C08348D1044F8253030BD00008C
:100660000014014000F8FEBF0000014000002042DD
:10067000DE48006840F00100DC4908600846406838
:10068000DB490840D949486008460068D949084014
:10069000D64908600846006820F4802008600846B3
:1006A000406820F4FE004860002088607047CF4911
:1006B000096821F48031CD4A11601146096821F49E
:1006C00080211160B0F5803F03D0B0F5802F0ED1AE
:1006D00006E0C649096841F48031C44A116007E068
:1006E000C249096841F4A021C04A116000E000BF7E
:1006F00000BF704710B501460022002300204A11B8
:10070000012A02D1B94C236806E0022A02D1B74C73
:10071000236A01E0B54C636A01F01F020124944092
:100720001C400CB1012000E0002010BD38B50020B5
:1007300000900024002500BF3120FFF7DBFF0546B5
:100740000098401C00901DB90098B0F5A06FF3D13F
:100750003120FFF7CFFF08B1012400E0002420463C
:1007600038BD01460020A14A106820F0F80040EA98
:10077000C10010607047A049086070470246002021
:100780009A4B586820F47C1042EA01031843974BB7
:100790005860704798490866704701460020934AA0
:1007A000506820F003000843506070478F4840684D
:1007B00000F00C007047014600208C4A506820F081
:1007C000F00008435060704701460020874A506897
:1007D00020F4E06008435060704701460020834ADF
:1007E000506820F4605040EAC1005060704729B161
:1007F0007E4A527A02437D4B5A7204E07B4A527A17
:1008000082437A4B5A7270477B49D83108607047EF
:1008100001460020754A506820F44040084350606B
:1008200070470021714A20321170704A82F82010FE
:10083000012802D004280AD104E001216B4A2032A9
:10084000117005E00521694A2032117000E000BFF7
:1008500000BF70476949086070476449096A0143ED
:10086000624A11627047654944390860704730B583
:1008700000210022002400235C4D6D6805F00C016E
:1008800021B1042905D0082923D105E05C4D05607C
:1008900022E05B4D05601FE0544D6D6805F4701259
:1008A000022505EB9242514D6D6805F480341CB968
:1008B000544D554305600BE04C4D6D6805F4003513
:1008C0001DB1504D5543056002E04D4D5543056047
:1008D00002E04B4D056000BF00BF444D6D6805F060
:1008E000F0010909484D6B5C0568DD4045603F4DEE
:1008F0006D6805F4E061090A434D6B5C4568DD40B5
:1009000085603A4D6D6805F46051C90A3E4D6B5CD7
:100910004568DD40C560354D6D6805F44041890B83
:100920003A4D6B5CC568B5FBF3F5056130BD29B187
:100930002E4A526902432D4B5A6104E02B4A5269F8
:1009400082432A4B5A61704729B1284A926902436F
:10095000264B9A6104E0254A92698243234B9A61AF
:10096000704729B1214AD2690243204BDA6104E081
:100970001E4AD26982431D4BDA61704729B11B4A76
:10098000D2680243194BDA6004E0184AD268824305
:10099000164BDA60704729B1144A12690243134BAF
:1009A0001A6104E0114A12698243104B1A617047C0
:1009B00012494039086070470F49C86470470B49B5
:1009C000C87170470948406A40F080700749486222
:1009D000704701460020054A92680A400AB101208A
:1009E00000E0002070470149887270470010024003
:1009F0000000FFF8FFFFF6FE000042428004424282
:100A000000127A0000093D000000002010000020C4
:100A100010B50446D749601A8C422BD006DCD64864
:100A2000204498B1B0F5806F38D119E0B0F5806FEF
:100A30002AD0B0F56C4F31D101218803FFF79EFF1A
:100A400000214FF48040FFF799FF28E0012148047E
:100A5000FFF7A1FF00214FF40030FFF79CFF1EE0DD
:100A600001218804FFF797FF00214FF48020FFF752
:100A700092FF14E00121C804FFF78DFF00214FF41D
:100A80000020FFF788FF0AE001210805FFF783FF38
:100A900000214FF48010FFF77EFF00E000BF00BF91
:100AA00010BD2DE9F04786B005460E460024A2464B
:100AB00000BF00BF00272F462C8A4CF6FF70044071
:100AC000F08804432C82AC894EF6F3100440B088C1
:100AD00031890843718908430443AC81AC8A4FF6DD
:100AE000FF400440B0890443AC8201A8FFF7BFFE79
:100AF000A248874202D1DDF810A001E0DDF80CA089
:100B00000AEBCA0000EB0A1031688900B0FBF1F86B
:100B10006420B8FBF0F004012009642101FB108976
:100B2000322000EB0910B0FBF1F000F00F0004439D
:100B30002C8106B0BDE8F0874FF41651016000210A
:100B40008180C18001810C21418100218181704718
:100B500010B502460020108A4FF2FF0318400B88A0
:100B60004C8823438C882343CC882343184310822A
:100B700010BD0021018041808180C180704721B17A
:100B8000828942F40052828104E082894DF6FF732B
:100B90001A4082817047F0B50346002400260025E4
:100BA00000201846C1F3421401F01F06012707FA7E
:100BB00006F5012C01D10C3004E0022C01D11030DB
:100BC00000E014301AB107682F43076002E007689D
:100BD000AF430760F0BD1AB1838A0B43838202E002
:100BE000838A8B4383827047028A4FF6F0731A40E0
:100BF0000282028A0A430282704782894FF2FF739F
:100C00001A40828182890A438281704721B1828998
:100C100042F00202828104E082894FF6FD731A409D
:100C200082817047028A4FF6DF731A400282028A7D
:100C30000A430282704721B1028A42F48042028252
:100C400004E0028A4BF6FF731A4002827047C1F338
:100C500008028280704701468888C0F30800704708
:100C6000818941F0010181817047028BD2B20283F8
:100C7000028B42EA012202837047028B02F47F4218
:100C80000283028B0A430283704721B1828A42F0B9
:100C90002002828204E0828A4FF6DF731A40828249
:100CA000704721B1828A42F01002828204E0828A77
:100CB0004FF6EF731A408282704721B1828A42F068
:100CC0000802828204E0828A4FF6F7731A40828219
:100CD0007047828A4FF6FB731A408282828A0A43E7
:100CE0008282704721B1828A42F00202828204E04D
:100CF000828A4FF6FD731A408282704702460020B6
:100D000013880B400BB1012000E000207047CA435C
:100D10000280704770B502460B4600240021002572
:100D20000020C3F3421503F01F01012606FA01F16A
:100D3000012D02D19689314006E0022D02D1168A9A
:100D4000314001E0968A31401C12012606FA04F473
:100D50001688344011B10CB1012000E0002070BDB4
:100D600010B5002200230A1201249440A3B2DC43F0
:100D7000048010BD004C004000BCFFBF00380140A3
:100D800010B50446F748204430B1B0F5806F0DD05F
:100D9000B0F5C05F1ED113E001214802FFF7EEFD60
:100DA00000214FF40070FFF7E9FD14E001218802F3
:100DB000FFF7E4FD00214FF48060FFF7DFFD0AE05C
:100DC0000121C803FFF7DAFD00214FF40040FFF7CF
:100DD000D5FD00E000BF00BF10BD30B502460020C9
:100DE00000235068E04C20400D790C6844EA05244B
:100DF000204350609068DD4C2040D1E902542C43E0
:100E00004D7944EA450420439060D06A20F4700094
:100E10000C7C641E1C43E3B240EA0350D06230BD38
:100E200000210160017141718160C1600121017483
:100E3000704721B1826842F00102826003E082685B
:100E400022F001028260704721B1826842F4807210
:100E5000826003E0826822F480728260704710B57D
:100E60000023CBB21AB144681C43446002E04468DA
:100E70009C43446010BD816841F008018160704767
:100E8000014600208A6802F008020AB1012000E051
:100E900000207047816841F004018160704701467D
:100EA00000208A6802F004020AB1012000E000205C
:100EB000704721B1826842F4A002826003E0826838
:100EC00022F4A00282607047014600208A6802F482
:100ED00080020AB1012000E00020704710B50A46E8
:100EE00000210023416821F46041531E41EA43314F
:100EF000416010BD21B1426842F40062426003E0EB
:100F0000426822F4006242607047F0B504460D4624
:100F100000200021092D11DDE068A5F10A0606EB8D
:100F20004607072606FA07F18843A5F10A0606EBED
:100F3000460603FA06F10843E0600CE0206905EB81
:100F40004507072606FA07F1884305EB450603FA2D
:100F500006F108432061072A0FDA606B561E06EB84
:100F600086071F2606FA07F18843561E06EB8606FB
:100F700005FA06F10843606322E00D2A0FDA206BC0
:100F8000D61F06EB86071F2606FA07F18843D61FF1
:100F900006EB860605FA06F10843206310E0E06AD6
:100FA000A2F10D0606EB86071F2606FA07F1884315
:100FB000A2F10D0606EB860605FA06F10843E0628B
:100FC000F0BD21B1826842F48012826003E0826841
:100FD00022F48012826070470146C86C80B270476C
:100FE00063480068704721B1426842F48062426001
:100FF00003E0426822F480624260704721B1426897
:1010000042F48052426003E0426822F4805242601F
:1010100070470A460021816821F4E0411143816054
:10102000704721B1826842F40042826003E0826826
:1010300022F400428260704721B1826842F40212B9
:10104000826003E0826822F40212826070470146E7
:1010500000208A6802F400120AB1012000E000209A
:101060007047F0B5044615460020002200260929E5
:1010700011DDE068A1F10A0707EB470C072707FA23
:101080000CF29043A1F10A0707EB470703FA07F2B6
:101090001043E0600CE0206901EB410C072707FAE0
:1010A0000CF2904301EB410703FA07F21043206171
:1010B000A06BC0F30156EF1C06F1010CA7EB0C0767
:1010C00007EB870C1F2707FA0CF29043EF1C06F181
:1010D000010CA7EB0C0707EB870701FA07F2104397
:1010E000A063F0BD10B50A4600210023816B21F4F6
:1010F0004011531E41EA0351816310BD42507047B5
:1011000002465018806A80B270470A460021416842
:10111000184B194011434160704741628262704729
:101120000A460021416821F01F01114341607047C8
:1011300040B10F494439096841F400010C4A443A6E
:10114000116007E00A494439096821F40001084A9E
:10115000443A116070470246002013680B405BB1AF
:1011600001200AE000DCFEBFFFFEF0FFFDF7F1FF0B
:101170004C240140FFFD3FFF00207047CA4302603E
:10118000704770B502460020002300240B125568FA
:10119000CEB205EA060415681D4015B10CB1012058
:1011A00000E0002070BD00220A12D34303607047A4
:1011B000016821F00101016000210160416081604E
:1011C000C160874A811A90425BD012DC854AA0EB4D
:1011D000020190423AD007DC83490144D9B1142975
:1011E00022D028297AD128E0142938D0282975D18D
:1011F0003EE0B1F56C7F5BD006DCB1F5627F49D093
:10120000B1F5677F6AD14CE0B1F5717F57D0B1F588
:10121000767F63D15BE073494439496841F00F013F
:10122000704A443A51605AE06E494439496841F085
:10123000F0016C4A443A516051E06A4944394968C6
:1012400041F47061674A443A516048E06549443965
:10125000496841F47041634A443A51603FE0614952
:101260004439496841F470215E4A443A516036E09D
:101270005C494439496841F470015A4A443A516022
:101280002DE058494439496841F07061554A443A63
:10129000516024E05549096841F00F01534A11603B
:1012A0001DE05249096841F0F001504A116016E012
:1012B0004E49096841F470614C4A11600FE04B4996
:1012C000096841F47041494A116008E006E0474965
:1012D000096841F47021454A116000E000BF00BF79
:1012E000704710B50022026847F6F0739A430C6A03
:1012F0008B6823430C6923434C6923438C69234344
:10130000CC6923434C6A23438C6A23431A4302600B
:10131000CB6843600B6883604B68C36010BD0021DD
:10132000016041608160C160016141618161C161B1
:10133000016241628162704721B1026842F001029C
:10134000026003E0026822F00102026070471AB1F5
:1013500003680B43036002E003688B43036070473C
:101360000146486880B2704701460020002201F023
:1013700080531BB11D4B1B1F1A6802E0194B443BE5
:101380001A6802EA01030BB1012000E00020704757
:1013900000F0805111B11549086002E0114944394B
:1013A0004860704701460020002201F080531BB1C5
:1013B0000E4B1B1F1A6802E00A4B443B1A6802EAF4
:1013C00001030BB1012000E00020704700F08051C4
:1013D00011B10649086002E002494439486070478B
:1013E0008000024044000240F8FFFDBF04040240B8
:1013F0000CB50020019000904748006840F4803010
:101400004549086000BF4448006800F4003000907F
:101410000198401C0190009818B90198B0F5A06F90
:10142000F1D13D48006800F4003010B10120009077
:1014300001E0002000900098012844D1374800685E
:1014400040F01000354908600846006820F00300AD
:1014500008600846006840F0020008602E484068B6
:101460002D4948600846406848600846406840F496
:10147000806048600846406820F47C104860084658
:10148000406840F4E81048600846006840F080700A
:10149000086000BF2048006800F000700028F9D004
:1014A0001D48406820F003001B494860084640681A
:1014B00040F00200486000BF1748406800F00C0090
:1014C0000828F9D101E000BFFEE70CBD10B5FFF719
:1014D0008FFF10BD10B51048006840F001000E49A4
:1014E0000860084640680E4908400B4948600846B5
:1014F00000680C490840084908600846006820F464
:10150000802008600846406820F4FE004860002003
:101510008860FFF7DBFF10BD001002400020024092
:101520000000FFF8FFFFF6FE00B585B0012144F290
:101530000400FFF709FA4FF40070ADF8100018200E
:101540008DF8130003208DF8120004A91B48FEF744
:101550005FFF4FF48060ADF8100004208DF8130099
:1015600004A91648FEF754FF4FF4E1300090002024
:10157000ADF80400ADF80600ADF80800ADF80C00B9
:101580000C20ADF80A0069460D48FFF78AFA0121E0
:101590000B48FFF7F4FA05B000BD70B504460D46E0
:1015A000E1B20748FFF753FB00BF0548008800F091
:1015B00080000028F9D0204670BD000000080140DE
:1015C0000038014008B501210420FFF7BDF90120D2
:1015D000ADF8000000208DF8030069464348FEF78F
:1015E00017FF0220ADF8000000208DF803006946C7
:1015F0003E48FEF70DFF08BD00B591B00121084639
:10160000FFF795F93A48FFF7D3FD3A4806903A4874
:101610000790002008900220099000200A90802066
:101620000B9040000C9080000D9020200E90000246
:101630000F900020109006A92D48FFF752FE0121BF
:101640002B48FFF779FE01214802FFF77DF90020C2
:10165000019001208DF808008DF809004FF46020FA
:1016600003900020049002208DF8140001A9214865
:101670004C38FFF7B2FB0523012200211D484C38EE
:10168000FFF743FC0523022201211A484C38FFF7DB
:101690003CFC012117484C38FFF7D6FB01211548C7
:1016A0004C38FFF7C6FB13484C38FFF7E4FB00BF8C
:1016B00010484C38FFF7E4FB0028F9D10D484C38AE
:1016C000FFF7E8FB00BF0B484C38FFF7E8FB0028AA
:1016D000F9D1012107484C38FFF7EBFB11B000BDF1
:1016E00010B5FFF76FFFFFF787FF10BD000801403F
:1016F000080002404C240140140000202DE9F0476E
:101700000746884614460021216061600022FE4B96
:101710003846414601F052FB0546FC4AFC4B00F0BE
:10172000A4FB8146D4E900532A4600F0F7FAC4E945
:1017300000010022F74B3846414601F03FFB0546C9
:10174000F54AF64B00F091FB8146D4E900532A4656
:1017500000F0E4FAC4E900010022F14B38464146AA
:1017600001F02CFB0546EF4AEF4B00F07EFB814673
:10177000D4E900532A4600F0D1FAC4E9000100225E
:10178000EA4B3846414601F019FB0546E84AE94B69
:1017900000F06BFB8146D4E900532A4600F0BEFA04
:1017A000C4E900010022E44B3846414601F006FB43
:1017B0000546E24AE24B00F058FB8146D4E900536B
:1017C0002A4600F0ABFAC4E900010022DD4B38469E
:1017D000414601F0F3FA0546DB4ADC4B00F045FBDD
:1017E0008146D4E900532A4600F098FAC4E9000182
:1017F0000022D74B3846414601F0E0FA0546D54A6B
:10180000D54B00F032FB8146D4E900532A4600F064
:1018100085FAC4E900010022D04B3846414601F068
:10182000CDFA0546CE4ACF4B00F01FFB8146D4E9E6
:1018300000532A4600F072FAC4E900010022CA4BA4
:101840003846414601F0BAFA0546C84AC84B00F08E
:101850000CFB8146D4E900532A4600F05FFAC4E944
:1018600000010022C34B3846414601F0A7FA054665
:10187000C14AC24B00F0F9FA8146D4E900532A4626
:1018800000F04CFAC4E900010022BD4B3846414645
:1018900001F094FA0546BB4ABB4B00F0E6FA8146DC
:1018A000D4E900532A4600F039FAC4E900010022C5
:1018B000B64B3846414601F081FA0546B44AB54B6D
:1018C00000F0D3FA8146D4E900532A4600F026FA04
:1018D000C4E900010022B04B3846414601F06EFADF
:1018E0000546AE4AAE4B00F0C0FA8146D4E900533B
:1018F0002A4600F013FAC4E900010022A94B384639
:10190000414601F05BFA0546A74AA84B00F0ADFA44
:101910008146D4E900532A4600F000FAC4E90001E8
:101920000022A34B3846414601F048FA0546A14A39
:10193000A14B00F09AFA8146D4E900532A4600F000
:10194000EDF9C4E9000100229C4B3846414601F004
:1019500035FA05469A4A9B4B00F087FA8146D4E94E
:1019600000532A4600F0DAF9C4E900010022964B40
:101970003846414601F022FA0546944A944B00F05D
:1019800074FA8146D4E900532A4600F0C7F9C4E945
:10199000000100228F4B3846414601F00FFA054600
:1019A0008D4A8E4B00F061FA8146D4E900532A46F5
:1019B00000F0B4F9C4E900010022894B38464146E1
:1019C00001F0FCF90546874A874B00F04EFA814644
:1019D000D4E900532A4600F0A1F9C4E9000100222D
:1019E000824B3846414601F0E9F90546804A814B71
:1019F00000F03BFA8146D4E900532A4600F08EF904
:101A0000C4E9000100227C4B3846414601F0D6F97A
:101A100005467A4A7A4B00F028FA8146D4E9005309
:101A20002A4600F07BF9C4E900010022754B3846D4
:101A3000414601F0C3F90546734A744B00F015FAAC
:101A40008146D4E900532A4600F068F9C4E9000150
:101A500000226F4B3846414601F0B0F905466D4A09
:101A60006D4B00F002FA8146D4E900532A4600F09B
:101A700055F9C4E900010022684B3846414601F09F
:101A80009DF90546664A674B00F0EFF98146D4E9B7
:101A900000532A4600F042F9C4E900010022624BDB
:101AA0003846414601F08AF90546604A604B00F02D
:101AB000DCF98146D4E900532A4600F02FF9C4E945
:101AC000000100225B4B3846414601F077F905469C
:101AD000594A5A4B00F0C9F98146D4E900532A46C5
:101AE00000F01CF9C4E900010022554B384641467C
:101AF00001F064F90546534A534B00F0B6F98146AC
:101B0000D4E900532A46A1E000003E40BC2FAE1AA3
:101B1000A51BA3AC00003D408B3958CF378F942DC7
:101B200000003C407053819723B673AE00003B40E9
:101B300026F9FD9EE8C5452F00003A40656AB57A52
:101B40002B580DB000003940E9519C17A8D7C5307B
:101B500000003840859194A5FB8D51B100003740BD
:101B60009EE34633940A39B20000364016B6742814
:101B7000D245F53200003540CE43307C33478733C1
:101B8000000034405E62D57EBDFA73B4000033407D
:101B9000ADE5E6DD39783335000032403B5EE628BE
:101BA000B384E4B5000031406DA84027F43F883687
:101BB00000003040026EE965A88F1DB700002E407E
:101BC000129274BCE25AD13700002C404557AEF651
:101BD000D71A99B800002A401DEF123A977053396E
:101BE00000002840CC29981AA74403BA00002640D8
:101BF0008BEA5C350D49AB3A0000244005E7748759
:101C00007C054DBB0000224042D3421372BAE73B31
:101C100000002040FB12036759197EBC00001C40E5
:101C2000C78B2E076EA10D3D0000184058502B8B1E
:101C3000048296BD00001440693BA5BFA91A1A3E54
:101C400000001040790536182FC696BE00F066F8E1
:101C5000C4E9000100221F4B3846414601F0AEF8AE
:101C600005461D4A1D4B00F000F98146D4E900539A
:101C70002A4600F053F8C4E9000100224FF08043E7
:101C80003846414601F09AF80546154A154B00F0D2
:101C9000ECF88146D4E900532A4600F03FF8C4E945
:101CA0000001114A114B3846414600F0DEF88146EA
:101CB000D4E900532A4600F031F8C4E900010C4A87
:101CC0000C4BD4E90051284600F028F8C4E9000183
:101CD000BDE8F0870000084016DFEC0021680D3FEA
:101CE000DE4BACA4E4E17BBF80FDFA561326E53F52
:101CF000172F7DF3BBD450C040EA01039B0703D0EC
:101D000009E008C9121F08C0042AFAD203E011F83A
:101D1000013B00F8013B521EF9D270472DE9FE4FFE
:101D2000804681EA0300C00F0C46009021F000417C
:101D300023F00045B8EB0200A94105D240462146F8
:101D400090461C460B46024623F00040104347D005
:101D5000270DC7F30A00C3F30A510290401A0190FD
:101D600040286BDAC3F3130040F4801B00989246BE
:101D700020B10023D2EB030A63EB0B0B0198594609
:101D8000C0F14002504600F0C4F906460D465046E8
:101D90005946019A00F0DCF910EB0800614100247B
:101DA00087EA115284EAE7731A4340D0009A62B37B
:101DB000019A012A4FEA075215DC001B61EB020170
:101DC0004FF0004202EA0752CDE90042001C41F503
:101DD000801132462B4600F0DCF903B0BDE8F08FED
:101DE00040462146F9E7001B61EB0201001C41F56A
:101DF000801300185B412018A2F5001747EB030180
:101E000040EAD570B6196D4111E06D084FEA36060B
:101E100045EAC0754FEA0752001B61EB0201001C46
:101E200041F5801149084FEA30000019514132460E
:101E30002B4603B0BDE8F04F00F09CB9009801229A
:101E400040000023D0EB020263EBE07300982146D0
:101E50004FEAE074B8EB000061EB0401E9E783F0BE
:101E600000435BE781F0004158E72DE9FE4F81EA2E
:101E7000030404F0004421F0004100944FF0000BF3
:101E800023F0004350EA01045ED052EA03045BD021
:101E9000C3F30A54C1F30A552C44A4F2F334019459
:101EA000A0FB0254C1F3130141F48011C3F31303E7
:101EB00043F4801301FB024400FB034E840A970A9B
:101EC00044EA815447EA8357A4FB076802958D0AC8
:101ED00005FB07854FEA932C04FB0C542705029D54
:101EE0004FEA065847EA1637B5EB08056EEB070CC4
:101EF000870E920E47EA811742EA8312A7FB02017E
:101F0000B6EB0B0164EB00042B0D43EA0C335E18B7
:101F100044EB1C50DA465146E7FB0201C5F31304BB
:101F20004FEA0B3343EA14534FEA0432019C43EA6D
:101F30000603A4F10C040294009CCDE900B400F067
:101F400028F903B0BDE8F08F00200146F9E72DE93C
:101F5000F04D81EA030404F0004B21F000451446E3
:101F60004FF0000A23F0004150EA050220D054EA65
:101F700001021DD0C5F30A570246C5F31303C1F38E
:101F80001300C1F30A5640F4801543F48013A7EB05
:101F90000608101BD64608F2FD3873EB050002D385
:101FA00008F1010801E092185B41B8F1000F03DA73
:101FB00000200146BDE8F08D00204FF48011064658
:101FC00084460EE0171B73EB050705D3121B63EB6A
:101FD000050306434CEA010C49084FEA3000921809
:101FE0005B4150EA0107EDD152EA030012D082EAC8
:101FF000040083EA0501084305D0101BAB4106D25B
:102000000122002306E000224FF0004302E06FF0BF
:10201000010253101AEB06004CEB085110EB0A00BA
:1020200041EB0B01BDE8F04D00F0A4B80EB540F255
:10203000334102910021CDE900110A460B4600F020
:10204000A8F803B000BD70B5C1F30A5201F0004515
:102050000024C1F3130140F2FF3341F480119A428E
:1020600001DA002070BD40F233439A42A2F23342BB
:1020700003DC524200F05CF800E090402C43F1D0C9
:10208000404270BD30B50B4601460020202201249D
:1020900009E021FA02F59D4205D303FA02F5491B36
:1020A00004FA02F52844151EA2F10102F1DC30BD4C
:1020B0002DE9F05F0546002092469B46884606467D
:1020C000814640241BE0284641464746224600F010
:1020D0002FF853465A46C01A914110D3114618465C
:1020E000224600F016F82D1A67EB01084F462246EB
:1020F0000120002100F00DF817EB00094E41201ED1
:10210000A4F10104DFDC484631462A464346BDE8D7
:10211000F09F202A04DB203A00FA02F100207047E9
:102120009140C2F1200320FA03F319439040704715
:10213000202A04DB203A21FA02F00021704721FA1C
:1021400002F3D040C2F12002914008431946704783
:10215000202A06DBCB17203A41FA02F043EAE0736B
:1021600006E041FA02F3D040C2F120029140084358
:102170001946704710B5141E73F1000408DA401CAC
:1021800041F1000192185B411A4301D120F0010096
:1021900010BD2DE9F04D92469B4611B1B1FA81F286
:1021A00002E0B0FA80F220329046FFF7B2FF044618
:1021B0000F4640EA0A0041EA0B0153465A460843DB
:1021C00013D0114653EA010019D0C8F1400250461D
:1021D000FFF7AEFF05460E46504659464246FFF70A
:1021E00098FF084305D0012004E020463946BDE8A9
:1021F000F08D0020054346EAE0762C4337430A98E9
:102200006305E40AA0EB08000022FD0A44EA4754F3
:102210000A3002D500200146E9E70105101969419D
:10222000DDE9084500196941BDE8F04DA2E770B548
:1022300021F0004303430CD0C1F30A550024D5EB31
:10224000040564EB0403D617AD1AB34102DB00208A
:10225000014670BD201841EB025170BD0EB5C10F93
:1022600080EAE0700844CA07002140F233438DE859
:102270000E000A460B46FFF78CFF03B000BDC1F30A
:102280000A52C1F3130140F2FF3341F480119A4224
:1022900002DA00200146704740F233439A42A2F22C
:1022A000334202DC5242FFF743BFFFF732BF000068
:1022B00030B5041E71F1000404DB4FF000444042CD
:1022C00064EB0101141E73F1000405DB1C464FF0A2
:1022D0000043524263EB0403994208BF904230BD71
:1022E000064C074D06E0E06840F0010394E8070063
:1022F00098471034AC42F6D3FDF7FCFE783800085E
:10230000983800082DE9F04D00231A461B1A8A411F
:1023100003DB00200146BDE8F08DC1F30A52C1F392
:10232000130141F480154FF0000BD10702D10018C2
:102330006D41521E0027044640F2FF11384601EB62
:10234000620A3E468046024600204FF48011FFF7A5
:10235000EFFEC2197141BB1846EB0100B4EB030C50
:1023600075EB000C04D3E41A65EB000517460E4626
:10237000241908F101006D4180463428E3DDF91984
:1023800046EB0600091BA84103D24FF0FF3213466B
:1023900001E0002213461BEB070046EB0A51BDE8A3
:1023A000F04DFFF7E7BE00000FB4054B10B503A9D1
:1023B000044A029800F06AF910BC5DF814FB0000B2
:1023C0009B15000818000020490050EAC12018BFE2
:1023D00004204A0D18BF40F0010040F2FF72B2EB3A
:1023E000515F08BF40F00200012808BF0520704778
:1023F0002DE9F0414F1E00EBC7010446D1E9000171
:1024000015461E4637F006020DD02A463346FFF722
:102410002CFD7F1E04EBC703D3E90023FFF77EFCEE
:1024200037F00602F1D1022F25D0042F13D0062F4A
:1024300018BFBDE8F0812A463346FFF716FDD4E900
:102440000A23FFF76BFC2A463346FFF70EFDD4E95B
:102450000823FFF763FC2A463346FFF706FDD4E95D
:102460000623FFF75BFC2A463346FFF7FEFCD4E960
:102470000423FFF753FC2A463346FFF7F6FCD4E962
:102480000223FFF74BFC2A463346FFF7EEFCD4E964
:102490000023BDE8F041FFF741BC000000221346D5
:1024A00010460149FFF753BD0000F03FFFF736BC6F
:1024B0000022134610461146FFF749BD40F2013293
:1024C00000204FF0E041FFF7B2BE0000024A0020BA
:1024D0001107FFF7ACBE000001FDFFFF02E008C8D6
:1024E000121F08C1002AFAD170477047002001E08E
:1024F00001C1121F002AFBD170470000014908608A
:10250000704700001C0000202DE9FF5F82B0002111
:10251000DDE90430020DDDF840B0034318D044F685
:102520001050A2F2FF3242431514119801281FD017
:10253000A5EB0B00401C5FEA000A4FF000064E4F6F
:10254000DFF83891B046504615D5CAF1000413E0C3
:10255000119801244AA3012801D16FEA0B010298C6
:10256000119AC0E90031C0E9024206B0BDE8F09F0F
:10257000CBF10000DFE704460021404A491842EB56
:102580000450CDE9001012E0E00707D032463B4688
:1025900040464946FFF769FC8046894632463B463D
:1025A00010461946FFF761FC06460F466410002CE2
:1025B000EAD1DDE90401DDE90023BAF1000F06DA12
:1025C000FFF753FC42464B46FFF74FFC05E0FFF791
:1025D000BEFC42464B46FFF7BAFC04460E460022BC
:1025E000284BFFF765FE03D84FF0FF30014607E0A8
:1025F0000022254B20463146FFF790FBFFF73FFEB8
:10260000102409E0002C0ADB0A220023FFF750FD0A
:10261000039B30321A55641E50EA0102F2D1641C49
:10262000039AC4F111031444119A012A03D0012220
:1026300008430DD10AE0084304D000204FF0110BED
:10264000119072E7A3EB0B056D1E0DE05B4504DDF9
:102650004FF0000205F1010504E003DA4FF000023B
:10266000A5F10105002AECD002981199C0E90231C8
:10267000C0E9004579E70000000014400000F03F89
:10268000300000000000F0430000E03F2DE9FF4F64
:1026900095B09B468946064600250FE2252877D14E
:1026A00000242746F84A0121059400E0044316F867
:1026B000013F203B01FA03F01042F7D130782A287D
:1026C00011D06FF02F033078A0F13002092A16D80C
:1026D000059A44F0020402EB820203EB420210442A
:1026E000761C0590EFE759F8042B0592002A03DACF
:1026F000504244F40054059044F00204761C3078B3
:102700002E2816D116F8010F44F004042A280DD003
:102710006FF02F023078A0F13003092B09D807EBB6
:10272000870302EB4303C718761CF3E759F8047BD1
:10273000761C30786C280FD006DC4C2817D068281F
:102740000DD06A2814D104E0742810D07A280FD153
:102750000DE044F400140AE044F4801401E044F471
:1027600040147278824202D104F58014761C761CE3
:10277000307866280BD013DC582877D009DC002885
:1027800075D04528F6D04628F4D047281AD19DE1C7
:1027900018E0632835D0642879D0652812D195E1F6
:1027A000702873D008DC6728F1D069286FD06E28B4
:1027B0000DD06F2806D1B5E073282CD0752875D0C0
:1027C000782874D05A46179990476D1C75E1C4F368
:1027D0000250022809D003280DD0D9F8001004288F
:1027E0000DD00D6009F1040967E1D9F80010EA176E
:1027F000C1E90052F6E7D9F800100D80F2E70D703C
:10280000F0E719F8041B8DF8001000208DF8010086
:10281000EA46012003E059F804AB4FF0FF306107AE
:102820004FF0000102D40DE008F101018846B942E1
:102830000FDA8045F8DB1AF808100029F4D108E017
:1028400008F1010188468142FADB1AF808100029D4
:10285000F6D105985B46A0EB080721463846179A43
:1028600000F094FA284400EB080507E04DE029E168
:102870000DE01AF8010B5A4617999047B8F1010874
:10288000F7D25B4621463846179A13E142E00A2206
:102890000092C4F302524FF0000A022A08D059F8FD
:1028A00004CB032A4FEAEC710AD00DE029E02AE0BC
:1028B00009F1070121F00702F2E802C1914609E09F
:1028C0000FFA8CFC4FEAEC71042A03D14FFA8CFC0E
:1028D0004FEAEC71002907DA0A460021DCF1000C0E
:1028E00061EB02012D2202E0220504D52B228DF896
:1028F0000420012203E0E20701D02022F7E79046FE
:1029000059E00A2102E010220DE010214FF0000AE8
:1029100000910BE010224FF0000A44F00404082755
:10292000009203E008224FF0000A0092C4F3025222
:10293000022A05D059F804CB0021032A08D009E067
:1029400009F1070121F00702F2E802C1914605E012
:102950001FFA8CFC042A01D10CF0FF0C4FF0000888
:10296000220728D5702806D0009B83F0100353EA75
:102970000A0305D00EE040228DF80420012208E071
:102980005CEA010206D030228DF804208DF80500A3
:1029900002229046009B83F0080353EA0A030AD1FF
:1029A0005CEA010201D1620705D530228DF80420CE
:1029B0004FF001087F1E582804D034A003900EA8C1
:1029C00002900DE036A0F9E753466046009AFFF703
:1029D0006FFB84460398825C0298401E029002704E
:1029E0005CEA0100F0D1029806A9081A00F1200A59
:1029F000600702D524F4803400E00127574502DD4A
:102A0000A7EB0A0000E0002000EB0A010090059807
:102A10004144401A0590E00306D45B462146179ACC
:102A2000059800F0B3F90544002706E001A85A46CE
:102A3000C05D179990476D1C7F1C4745F6DBE0038E
:102A40000CD55B462146179A059800F09FF905447E
:102A500004E030205A46179990476D1C0099481E93
:102A600000900029F5DC08E0029802995A460078A7
:102A7000491C0291179990476D1CBAF10001AAF107
:102A8000010AF1DC65E10000092801003031323330
:102A9000343536373839616263646566000000009A
:102AA0003031323334353637383941424344454684
:102AB0000000000000F058F90544761C307800282A
:102AC0007FF4ECAD19B02846BDE8F08F620700D462
:102AD000062709F1070222F0070CFCE80223E14671
:102AE00003F000485FEA080C02D00FF2702C0DE0F2
:102AF0005FEA045C02D50FF2682C07E05FEAC47C51
:102B000002D00FF2602C01E0AFF2700C4FF0FF38F2
:102B100023F00043CDF850C065280CD006DC4528D2
:102B200009D046281DD047283DD13DE0662818D061
:102B300067287ED138E00021112F01DB112000E051
:102B4000781CCDE9000106A90EA8FFF7DDFCDDE940
:102B50000F010E9A03910021009207F1010A0491DE
:102B60004DE04FF000400097CDE9011006A90EA8F6
:102B7000FFF7CAFCDDE90F0203920E9B11990022B8
:102B8000DDF80CA00093049211B9791C00EB010A46
:102B9000B7EB0A0004D4C0F1FF3007F1010A04903A
:102BA000AAEB0700019044E0012F00DA0127002181
:102BB000112F01DD112000E03846CDE9000106A902
:102BC0000EA8FFF7A1FCDDE90F010E9A0391002189
:102BD00004910092BA4621070CD40399514500DABA
:102BE0008A46BAF1010F05DD009AAAF10101515C94
:102BF000302908D0B84202DA10F1040F06DA0121B8
:102C0000CDE9011015E0AAF10101E9E7002805DC92
:102C1000049901440491AAEB000102E0411C5145D2
:102C200000DD8A460499401A401C01904FF0004094
:102C30000290200704D40198504501DBCDF80480B0
:102C400000208DF84F0002980DF14F07B0F1004FB2
:102C500025D02B200E9002984FF0020800280CDAA5
:102C6000404202902D200E9007E00A210298FFF7C3
:102C700009FA3031029007F8011DB8F10001A8F1FE
:102C80000108F2DC02980028EFD1791E0E98087036
:102C9000307800F0200040F0450007F8020D12A83F
:102CA000C01B00F107081498007800B1012000EB68
:102CB0000A01019801EBE07105984144401A401E59
:102CC0000590E00306D45B462146179A059800F06C
:102CD0005DF805441498007818B15A461799904742
:102CE0006D1CE00324D55B462146179A059800F039
:102CF0004DF805441CE00498002807DBDDE90301DA
:102D0000884203DD0098405C179901E01799302054
:102D10005A469047049805F10105401C049001981B
:102D2000401E019004D12E205A46179990476D1CE1
:102D3000BAF10001AAF1010ADDDC05E017F8010B88
:102D40005A46179990476D1CB8F10001A8F1010887
:102D5000F4DC5B462146179A0598ABE62D0000008F
:102D60002B000000200000002DE9F0410446002562
:102D70001E461746880404D405E039462020B04793
:102D80006D1C641EF9D52846BDE8F0812DE9F0419F
:102D9000044600251E469046C80301D5302700E0B2
:102DA0002027880404D505E041463846B0476D1C0D
:102DB000641EF9D52846BDE8F08100002DE9F04DEC
:102DC0001D460C4698B0174621F0004123F0004301
:102DD000002814BF4FF0010C4FF0000C0CEB440C1A
:102DE000FE4A0CEB02064FEA620C66452BD33E000E
:102DF00018BF012606EB45061644F94A964222D32F
:102E0000F84A53EA070C02D0944205D148B918B0E9
:102E100000201146BDE8F08D002808BF4FF0000CDF
:102E200001D04FF0010C0CEB440212F5001F0AD840
:102E3000002F14BF4FF0010C4FF0000C0CEB4502BB
:102E400012F5001F07D918B03A462B462146BDE8B7
:102E5000F04DFFF72BBB0022DFF88CA3002CB8BF8E
:102E6000534526DADFF884C36345A8BF022220DA7F
:102E7000DFF870C39C451CDCDFF874C30CEB235CEB
:102E8000BCF1140F08DDCCF1340627FA06FC0CFA6D
:102E900006F6BE420DD108E05FB9CCF1140623FA64
:102EA00006FC0CFA06F69E4203D10CF00102C2F1B8
:102EB000020251EA000C19D1002D17DA002C18BFBC
:102EC000022A01D0012A07D00220FFF717FB18B011
:102ED000BDE8F04DFFF7E2BA0220FFF70FFBFFF766
:102EE000DDFA18B081F00041BDE8F08DB7F1000CBB
:102EF0006CD1534525D104F1804212F5801201BFF7
:102F000000280020B74918B008BFBDE8F08DB548CB
:102F1000884207DC002DA1BF6046294618B0BDE8F5
:102F2000F08D07E0281E05DA80F0004118B06046F9
:102F3000BDE8F08DAF497944D1E9000118B0BDE892
:102F4000F08DDFF8A0C2634525D1002D1FDA19B13D
:102F5000514512D1D8B909E0002840F0EC82A24ACC
:102F6000214618B062F31E01BDE8F08D0020214615
:102F700018B060F31E01BDE8F08D08DA18B02346E2
:102F8000BDE8F04D024600206146FEF7E0BF18B0F4
:102F90002146BDE8F08D514518DAB5F1804F0DD0CE
:102FA000A5F1005CBCF1FF5C10D1B4F1000C0DDBAD
:102FB00018B06146BDE8F04D00F0EEBB234618B0F6
:102FC0000246BDE8F04D1946FEF74FBF060024F05B
:102FD000004C3BD1D9B1514533D1002C06DD002D39
:102FE000A1BF0020514618B0BDE8F08D002C01DDD6
:102FF000002D1BDB002C13DA002D11DB012A4FF012
:10300000000014BF78497C4918B0BDE8F08D022A51
:1030100018BF002C0AD0012A08D1002C06DA0AE0D9
:10302000002CB8BF002D11DA012A04D0002018B0FE
:103030000146BDE8F08D18B000204FF00041BDE81A
:10304000F08DA1F14050B0F17F601AD0012000EB6B
:10305000E47050EA020421D0624C521E4FF0000B83
:10306000104304BF4FF0000B644C654883427CDD85
:10307000644A654893421FDD884217DB002D25DB3B
:1030800037E0002C00DA4AB1022A0CBF01204FF0D1
:10309000FF3018B0BDE8F04DFFF7E0B80120FFF7B2
:1030A0002DFA18B0BDE8F04DFFF702BA4D4A8A423A
:1030B00002DC002D0ADC1CE0814202DA002D18DA65
:1030C00004E0484B994220DD002D12DD0220FFF77D
:1030D00015FAFFF7F3F905460E4600225346584607
:1030E0002146FEF7C2FE18B066F31E012846BDE871
:1030F000F08D0220FFF702FAFFF7E8F90A462146B1
:1031000018B062F31E01BDE8F08D00223046614622
:10311000FEF7A5FE80460E466FF00102FFF787F826
:103120004FF05532394BFEF79DFE42463346FEF7CF
:103130009CFE0022364BFEF795FE82464246334601
:10314000049110461946FEF790FE5246049BFEF786
:103150008CFE8A4600904FF0C0422E4B40463146CE
:10316000FEF783FE2C4A2B4B00E027E0CDE9060159
:1031700051460098FEF779FE82460191274A284B76
:1031800040463146FEF771FE5246019BFEF767FE50
:1031900082460B4602460591DDE90601FEF7BEFDBB
:1031A000DDE90623002688463046FEF758FE5246E3
:1031B000059BFEF757FE024600F07EB90020B1F5F0
:1031C000801F07DA352230466146FFF730F80646A1
:1031D0006FF0340000EB215024E00000FFFF1F00DF
:1031E000FFFF0F000000F03F0000F07F00004043B1
:1031F00001FCFFFF360900000000F0FF0000F0BFF7
:103200000000E0410000F043FFFFEF3F5555D53F80
:103210000000E03F4715F73FFE822B6544DF5DF875
:103220000BAE543EA0F2FF300190C1F3130040F00A
:103230007F6141F040510291FE498842D8BF002091
:1032400004DDFD498142C8BF012001DD0D9008E089
:1032500000200D900198401C01900298A0F580106C
:1032600002900299F54878440B910D9900EBC1004A
:10327000D0E900230F9330460A920B99FEF7EFFD39
:10328000CDE90601DDE90A2130460F9BFEF746FD38
:1032900002460B460020EA49FEF759FE0591024618
:1032A0000B460090DDE90601FEF7DFFD1490E548CE
:1032B0008A464FF0000878440299006812904FF057
:1032C000005040EA61010D980F9B01EB804000F532
:1032D000002109910A9A1298FEF7C1FD32460B9B14
:1032E000FEF7C0FD42465346FEF7BFFD064602917B
:1032F00040465146099B129AFEF7B7FDDDE90623C9
:10330000FEF7B0FD3246029BFEF7A9FD059B009A31
:10331000FEF7ABFD0091149A0490534610461946EF
:10332000FEF7A3FD06460246C7480B46029106215A
:103330007844FFF75DF8CDE90510029B3246104650
:103340001946FEF792FDDDE90532FEF78EFD059187
:103350000646534640461946149AFEF7DFFC009B8A
:10336000049AFEF782FD3246059BFEF7D7FCCDE9B5
:1033700005104246534610461946FEF776FD0022D8
:10338000B24B02910A90FEF7C9FCDDE90532FEF767
:10339000C5FC0E464246AD4B4046FEF760FD029B23
:1033A0000A9AFEF75CFDDDE90532FEF75BFD424659
:1033B00002910A90334610465146FEF756FDCDE97C
:1033C00006015346149A02990A98FEF74EFD8A4662
:1033D00002903346424600990498FEF746FD534654
:1033E000029AFEF79BFC82460B4602460591DDE9F8
:1033F0000601FEF793FCDDE9062300208846064619
:10340000FEF72DFD5246059BFEF72CFD82460991E5
:103410004FF060428E4B30464146FEF726FD049049
:1034200006918C4A8A4B50460999FEF71EFD82464A
:103430000291894A894B30464146FEF716FD5246B5
:10344000029BFEF76BFC864B7B440D9A03EBC20399
:10345000D3E90023FEF762FC0E9007910198FEF776
:10346000FDFE0591DDE9061382460E9A0498FEF7EB
:1034700055FC7C4A7A440D9B02EBC303D3E900233D
:1034800000930292FEF74AFC5246059BFEF746FC6B
:103490000026884652463046059BFEF7E0FC009B1E
:1034A000029AFEF7DCFC069B049AFEF7D8FC079B09
:1034B0000E9AFEF7D7FC024600200B4602903846D3
:1034C0002946FEF7D2FC824601912B463846194622
:1034D000029AFEF7C4FC32464346FEF7C6FC52464B
:1034E000019BFEF71BFC07468A46324643462946A7
:1034F0000298FEF7BAFC05460E463A465346FEF7DA
:103500000DFC594A8846914221DBA8EB020353EA9D
:10351000000210D12A463346FEF7A1FCCDE9040192
:10352000524A534B38465146FEF7F8FBDDE9042377
:10353000FEF7BEFE21D20220FEF7E0FFFEF7BEFF3F
:103540000A46214618B062F31E01BDE8F08D494BD2
:1035500028F000429A4210D3474A08EB020353EA8C
:1035600000027FF4C6AD2A463346FEF778FC3A46A1
:103570005346FEF79DFE7FF6BCAD0022019228F077
:1035800000403E493E4A01EB2051824223DA481C6A
:103590004FF4801121FA00F040443A4AC0F30A5136
:1035A0007A44394BA1F2FF31CB4020EA0303C0F348
:1035B000130040F48010C1F11401C840126801905A
:1035C000B8F1000FBCBF4042019028463146FEF7DB
:1035D00046FC05460E462A46334638465146FEF717
:1035E0009DFB4FF000084246284B40460591FEF7F0
:1035F0003CFCCDE90601264A264B40460599FEF7DC
:1036000034FC009102902A46334640460599FEF765
:1036100026FC3A465346FEF725FC1F4A1F4BFEF791
:1036200024FC009B029AFEF779FB07468846024677
:103630000B4635E08E9803007AB60B007E0500003D
:103640000000F03FB6050000E40400000000084060
:1036500009C7EE3FFD033ADCF5015B14E02F3EBEE7
:10366000BC0300008003000000009040FE822B6538
:103670004715973C00CC904000346F3F01FCFFFFA2
:103680000000E03FCC020000FFFF0F00432EE63FAA
:10369000396CA80C615C20BEEF39FAFE422EE63F81
:1036A000DDE90601FEF73AFBDDE9062305460E4695
:1036B000FEF7D5FB3A464346FEF7D4FB0F462A46B3
:1036C0003346009010461946FEF7CFFB824602466D
:1036D0002E4888460B4605217844FEF789FE52465F
:1036E0004346FEF7C2FB2A463346FEF7BBFB804645
:1036F0008A463B4628463146009AFEF7B6FB3B46D3
:10370000009AFEF70BFB0691009000224FF08043D9
:1037100040465146FEF7A3FB0F460C9042465346E7
:1037200028463146FEF7A1FB3B460C9AFEF70FFCFC
:10373000069B009AFEF793FB2A463346FEF78FFB63
:103740000022134BFEF78EFB054601980E4601EB57
:1037500000510815002810DC28463146019AFEF772
:1037600066FDFEF731FE042808BFFEF7AFFE2846CF
:103770003146019AFEF75BFD05460B4618B02A4616
:1037800058462146BDE8F04DFEF76FBB6C010000C6
:103790000000F03FFDF701BF2DE9F04106460F465E
:1037A000FEF7B0FD041E0D4618BF0120284320F08F
:1037B0000040C0F17F6000F1E040C00F0ED0301C2F
:1037C00018BF0120384320F00040C0F17F6000F1B5
:1037D000E040C00F04BF0120FEF790FE20462946BE
:1037E000BDE8F08100000000000000000000F03F94
:1037F000000000000000F83F000000000000000092
:103800000000004003B8E23F00000000000000009C
:1038100006D0CF43EBFD4C3E033333333333E33F2A
:10382000FFAB6FDBB66DDB3F4D268F515555D53F56
:1038300001411DA96074D13F65DBC9934A86CD3F24
:10384000EF4E454A287ECA3F3E5555555555C53F12
:1038500093BDBE166CC166BF2CDE25AF6A56113F04
:10386000F16BD2C541BDBBBED0A4BE726937663E06
:103870000000000000000000983800080000002050
:1038800020000000DC240008B838000820000020D8
:1038900000020000EC240008000000000102030404
:1038A00001020304060708090204060800000000DC
:0838B000000000000000000010
:0400000508000101ED
:00000001FF
